:020000041000EA
:4000000000400208230100100D00000085010010000000000000000000000000000000000000000000000000000000008101001000000000000000008101001081010010E9
:400040008101001081010010810100108101001081010010810100108101001081010010810100108101001081010010810100108101001081010010810100108101001060
:400080008101001081010010810100108101001081010010810100108101001081010010810100108101001081010010810100108101001081010010810100108101001020
:4000C00010B5064C2378002B07D1054B002B02D0044800E000BF0123237010BD3C06000800000000C4320010084B10B5002B03D00749084800E000BF07480368002B00D134
:4001000010BD064B002BFBD09847F9E70000000040060008C4320010E8000008000000007047FFF7FDFF72B60F4C104DAC4209DA21686268A368043B02DBC858D050FAE7B3
:400140000C34F3E70A490B4A0020521A02DD043A8850FCDC084809490860BFF34F8F00F007F900F01DF8FEE7C8320010E03200103C0600084C0800080000000808ED00E041
:40018000FEE7FEE700B504207146084202D0EFF3098001E0EFF30880043001F0BDFAFEE710B5034800F06AF9002001F06FFEFBE70000081010B5002001F02CF810BDC046AA
:4001C00070B56249E0239B00CB580F2213401A00D0329200525807210A40032A05D0042A06D0002A12D15A4814E05A4A106811E01A00C0329200554952581F210A40112ABF
:4002000006D0132A04D0FA20C00103E0524801E080200002002B36D14C4BB222D2009A5801211140B125ED005A59120F032422405B591B0F1C4207D0444C63591B0F032458
:400240002340012B02D102E0012300E00023002B01D0002901D1032A4BD13C4BB022D2009D58AD03AD0B3D495958C904C90C9C58240E01231C40013401F026FF68432100B5
:4002800001F022FF35E0012B33D1304BC822D2009A5801251540C024E4001A59120F03210A401B591B0F194207D028490B591B0F03210B40012B02D102E0012300E0002333
:4002C000002B01D0002D01D1032A12D11F4DC022D200AB587F210B40A958090A1F263140AC58240C3440584301F0EEFE210001F0EBFEE0239B00154AD3581B09032213403C
:40030000D840144C6060164B1D692D0AFC32154001351969090E013101F0D6FEA060290001F0D2FE0500E06020610E4BC0180E4901F0CAFE20750D4BE818FA21890001F0AB
:40034000C3FEA061C003E06170BDC0460000264000127A00C000000800366E0184050000000021403F420F0040420F00E703000010B5284801F0A2FE274CB022D200A35858
:400380005B005B08A350E0218900635830208343635080235B04A350204A214BE250A02292010433E250FF221E4BE25001F074FEC0225200A35801218B43A35000F02AFA7E
:4003C000FFF7FEFEB0235B055B78002B04D0B0235B055B78DBB200E02123212B03D1124B0022DA605A60114C22008021042000F0B7FC2000103000F04BFD0D4B1A685123EF
:40040000D35C002B02D00B4800F0B8FD00F080FB10BDC0460C3200100000264001000200840500008C050000E00023405806000848080008502200108023024AD3580320C9
:40044000184070470000214010B501F0F6F9084980228C58074B2340074C23438B508823034AD358DB06FAD501F0EBF910BDC04600002140FCFF00000100FA0570B5050046
:40048000830504D0E821FF310F4801F017F901F0D4F90400FFF7D0FF032801D1FFF7D4FF0A4AB0239B00D55080215058084B03400848034353508823044AD358DB06FAD52F
:4004C000200001F0BEF970BD8422001000002140FCFF00000300FA05FEE7C046F0B50025002711E0BB00C658F3B2FF22964308E06A008A181478A419527822700135013BA3
:40050000DBB2002BF4D10137052FEBD9F0BDC04680221206054B1A603323054A1360054A1360054A054B1A607047C04600001D4100031D4144031D4101001180000E1F41C3
:4005400010B50A00002101F054FE10BD10B501F047FE10BD30B587B09D49A022D2008B58032083438B509B4A116808688823CB58C31818689849084018601368186884243B
:400580001B59C01803681B021B0A80256D042B430360106805680359EB1818680140196013683E229A5C002A06D08948E02189004258753CA24342503E229A5C002A06D099
:4005C0008348E021890042583024A24342503E229B5C002B07D07E49E02292008B588020000603438B500021012000F045FE0021022000F041FE0021032000F03DFE00216C
:40060000042000F039FE0021002000F035FE01A8724903000A0032CA32C312CA12C300F059FE002802D00420FFF756FF68496C4A8B588020000603438B506A4800F004FF92
:40064000002802D00420FFF747FF614C664BE158664A0A40E250E158654A0A40E250E25880252D062A43E250043BE158614A0A40E250E158604A0A40802189010A43E250D2
:40068000E258802109020A43E2505C4A11685C4B0B40802149000B431360002001F072FC584BE2581543E550E158012291430A43E2506421002001F047F8464B1B683F2237
:4006C0009A5C052A06D970229A5C01210A404E49986842509A6874215B5AD21851683E4B0B408C2189010B4353603A4B1B6873229A5C0321914070229A5C7220185C1400B4
:4007000084402143012002400A43802109060A438021C900986842509A6852583F229A5C392A06D970229A5C02210A403749986842509A6874215B5AD2189168264B0B40B1
:40074000C42189010B439360224B1B6873229A5C0321914070229A5C7220185C140084402143022002400A43802109060A438021C900986842509A6852583F229A5C092AAF
:4007800003D90021224A986881509A6874215B5AD2181168104B0B40802149000B4313600C4B1A687323D15C703B8B4019007023D35C7220105C83400B43802109060B4305
:4007C0008021C9009068435093685B5807B030BD0000264048080008FF00FFFF9C220010087F0000400D030004050000FEFCFFFFFFFF00FFFFF0FFFFFF8FFFFF0000274074
:40080000FFFCFFFF0C050000140C0000E40C0000240C000070B58AB09621002000F094FF00F06AFF002814D100F056FFC0235B004F4AD358DB0705D411004E4A8B585B0066
:400840005B088B504A494B4A8B588020000603438B50012001F034FA474A516C474B0B40E82189010B435364536C1B0AFF2213403A2B07D1404A516C414B0B40E82189011F
:400880000B435364002300223E493F4801F098FB012300228021C905322001F091FBFFF759FE3A4A3A4B1A6000240CE0620012195300384AD318198B9A8AD88A000410432A
:4008C000FFF73EFE01340A2CF0D900240AE06200121993002F4AD3181A6ED96D986DFFF735FE0134122CF2D92B4D2C493C312800FFF7F4FD2A4A1368832149000B431360C0
:4009000001AC22002B00183343CB43C243CB43C243CB43C22100234800F002F922002B003C3343CB43C243CB43C243CB43C221001D4800F0F5F823002800603026C826C3B8
:4009400026C826C326C826C32100184800F0E8F824220021200001F04CFC332301932100134800F0DDF8FFF7D3FD0AB070BDC046000026400C05000000002740FF00FFFFFF
:40098000FFC5FFDF070E0040150E00000300FA05F00121409C2200101C2400109C2300100079344080023240000332408004324000053240214B984230D00ED8402831D084
:4009C00004D800281FD010282AD031E080282BD080235B00984229D02AE0194B984229D007D8A0231B0698420DD0164B984212D01EE0154B98420AD0144B984209D0144BF2
:400A0000984215D101E0002016E0124814E0124812E0124810E0A020C0030DE007480BE00F4809E00F4807E00F4805E0034803E00E4801E0A420C0037047C04606005200B6
:400A4000010000F0090000A0040000F0050000F0030000F0010052000200520003005200010050000200500005005200FF00520070B5124B1A683123D35C002B04D1C4214D
:400A8000FF310F4800F01AFE0C4B1D682C00B423EB582A6A944663441B68002B0BDB094B1868FFF787FF6B6801229A6063689B68002BFBD100E0044870BDC0464808000820
:400AC000442E0010E80700080200500010B50D4B1861002805D002230370FD33437000234380094B1B6850229A5C002A08D051229B5C002B04D04F3A0449002000F0F8FAB5
:400B000010BDC046E8070008480800086101000810B502481430FFF7D9FF10BDE807000870B505000C0000285DD000295DD0FF230A689A4303D099212D4800F0BFFDFF2322
:400B400022699A4303D09A21294800F0B7FDA3685B0D03D09B21264800F0B0FD63685B0A03D09C21224800F0A9FDE3695B0F03D09D211F4800F0A2FD236A5B0F03D09E21D7
:400B80001B4800F09BFD1B4A11688B69EB1ADB0949691B01CB18216829607D211068415C6918E06808607E211068415C6918206908607F211068415C6918606908607C21BE
:400BC0001068415C6918A06808606168A961116880228A5CAD18A2692A60E2691A60226A5A60002002E0044800E0034870BDC046842E00104808000801005A0070B504006C
:400C00000D000A4B1A68B423D3581B181B68002B0ADA0B0C03D00649064800F04FFD2D042D0C6560002000E0034870BD48080008D5020000042F001001008A0070B5050078
:400C40000C000368002B01DA002300E0084B002B0BD1EA60230C03D00649074800F02EFD2404240CAC60002000E0014870BDC04601008A00BB020000042F001070B5050000
:400C80000C1E03D19921084800F018FD074B1A68B423D3585B191B68002B03DAEB682360002000E0024870BD442F00104808000801008A0070B504000D00234B1A68312325
:400CC000D35C834236D9002936D00B68DB0635D13123D35C984204D3C421FF311B4800F0EDFC194B1B681A6AB0215B5A5C431419174E34602B68DA080021686801F079FA63
:400D000000212000FFF77AFF3468002D03D111490E4800F0D3FC2A0000212000FFF78EFF00280DD10A4B18680021FFF767FF002808D108E0084806E0074804E0064802E02F
:400D4000064800E0054870BD48080008042F0010000800089303000003018A0001018A0010B50400002A17D1002915D1124B1A683123D35C984204D3C421FF310F4800F017
:400D80009DFC0D4B1B681A6AB0215B5A5C4314190B4B1C6000200EE0002A09D0002909D0074B59609A60191D2000FFF783FF02E0044800E0034810BD48080008042F001070
:400DC0000008000803018A00F0B583B00D001C4B1B68DC68236883422DD947097B01C01A012383401E00002903D100F026FD019001E000230193124B18680368002B01DABA
:400E0000002300E00F4B002B0ED16368BF00DF193B68334203D0B3433B60002400E00A4C0021FFF7EBFE00E0084C002D04D1019800F007FD00E0064C200003B0F0BDC04678
:400E40000008000801008A00020188000301880004018A000A4B1B68DA68136883420BD943095901401A0121814052689B009B580B4203D0034802E0034800E0034870474E
:400E8000000800080101880004018A0000018800034B1B68002B01D1014B18607047C0460C080008F0B5474680B404000F0090461E002D4B1B68002B03D1B5212B4800F075
:400EC000FDFB294B1B682C2060431C18FF22150035402560330A13406360360CA660244B1A683123D35C9D4204D3C421FF31214800F0E4FB1E4B1A68B023D35A6B43116A8A
:400F00008C466344236166683223D35C9E4204D3E021FF31174800F0D1FB154B1B681D6A80367601AD196561A668330C04D0FF214900104800F0C2FB330C03D00E490D48EF
:400F400000F0BCFB3604330C1E43AE604346E36127620023A361069B002B02D000229B5EA38104BC9046F0BD0C080008842F001048080008042F0010FF010000F0B58FB0E7
:400F8000041E03D15221294800F098FB6368032B03D95421254800F091FBE36A002B03D15821224800F08AFB236B002B03D159211E4800F083FB07AA1300210061C961C3EF
:400FC00021C921C302AD290023001433C1CBC1C141CB41C10821535E0CAE3380144B1B6836215B5E07998C466344B370089B0D930B9B0A980096A26AE16AFFF753FF2B69FC
:40100000E868002200920021FFF74CFF216B300000F0E6FA0023F25E002A05DB1F231A401E3B9340034A13600FB0F0BD842F00104808000800E100E0F8B505000F0016009A
:401040001C00002A03D1FD21224800F037FB224B1B68002B03D1FE211E4800F02FFB1E4B1B682C2128004843181879435918012213004D68AB401B044568AA4015000269C9
:40108000002A20D08F69002F1FD11268002A01DA002200E0114A002A19D132681204120C134333600369DE6001238B614C6204692B0C03D00A490B4800F000FB2A04120C9C
:4010C000A260002004E0084802E0084800E00748F8BDC046842F00100C08000801008A00BB020000042F001004028A0007028A0070B504000D0016000F4B1B68002B04D1C8
:40110000AF2149000D4800F0D9FA0B4B1B682C2060431C18236A002B04D1B1214900074800F0CCFAE369B34204D9236AB6009D51002000E0024870BD0C080008842F001030
:401140000A028A0070B582B0040000230193002804D1D221FF312D4800F0B0FA2369002B04D1E9214900294800F0A8FA6369002B04D1D421FF31254800F0A0FA236A002B16
:4011800004D1EA214900214800F098FA6269D5682B0C24D01B041360136820691C4B1A68B423D358C3181B68002B18DA01A9FFF765FD00280ED1019803681E0CFF22134041
:4011C000E269934207D29B00226AD358002B02D0984700E0002631002069FFF70FFD2D042D0C0FD063691D601B68636A002B03D098470023636203E0A36A002B00D0984795
:401200000023A36163691B6802B070BD842F00104808000810B50400084B1B68002B04D1B221FF31064800F049FA044B1B682C2060431818FFF786FF10BDC0460C080008C0
:40124000842F001010B50400094B1B689B6CC340DB0703D4BE21074800F030FA044B1B681B691034A402E3580F20184010BDC04648080008C42F0010134B1A683C23D35C62
:4012800083421DD9042904D94B1EFF3B9BB2132B18D8FF290CD91F2319400C4A0300C0339B009950D03080000423835000200AE007231940D0308000044BC150002002E0EA
:4012C000034800E002487047480800080000264001004A0070B5041E03D14A494A4800F0EDF9B023DB00494AD358002B00DA87E0474B22689A4203D94649434800F0DEF916
:4013000023689B039B0BE279002A02D08022520400E000221343B022D2003C498B50A2883D4B9A4204D984218900374800F0C6F92289344B9A4203D93849334800F0BEF9E7
:40134000A388DB04D90C23891B04354A13400B43344A2E498B50A37A0F2B04D986218900294800F0ABF9E37A0F2B03D92E49264800F0A4F9A289284B9A4203D92B49224841
:4013800000F09CF9A37A0F211940E27A1201FF2313400B43A289120225490A401343A27B1207C02189050A401343B122D20017498B50A379042B03D91E49134800F07EF90E
:4013C000228A104B9A4204D9892189000E4800F075F90E4818494558184B1D40A3791B02E022D20013402B4343504558144B1D40238A1B040A4A13402B434350002000E004
:40140000104870BDFF0100000430001000002640FFFF030009020000FF1F0000110200000000FF0184050000190200001A02000000FF1F00230200008C050000FFF8FFFFB7
:40144000FFFF00FE03004A0070B505003149324A8B588020000603438B502C0003E0012000F020F9013CB223DB002A4AD3585B0701D4002CF3D12749B122D2008858274B06
:4014800003408020800503438B50002D01D0002C0CD02049B022D2008B588020000603438B5003E0012000F0FDF8013CB223DB00184AD358DB0701D4002CF3D1002D01D0DE
:4014C000002C08D01349B122D2008B58C020800503438B5013E00F4BB121C90058580F4A02408020800502435A5008395A58520052085A5008495A58520052085A50002D68
:4015000003D0002C03D0002002E0002000E0044870BDC046000026408C050000FFFFFFCF02004A0070B505000C001A4B1B6828229A5C012A15D1820807211000884327D155
:401540009200AD1AED00FF20A8401B6820339A181168AC4023004B40184004004C40146016E03A229B5EDBB2994203D176210A4800F0A4F8074B1B681B68072215408022B3
:40158000120615438022920194466444A400E55070BDC046480800088C30001070B504000D000B4B9A680B4B9A420CD1002904D13821FF31084800F081F81034054BA400BF
:4015C000E058E55003E01034A400044BE05870BD00ED00E0000000088C30001000000010F0B5474680B482B0061E01914AD04368032B03D93221264800F060F80023F05EB7
:40160000002804DBB178FFF78DFF002400E0214C0023F15E7368002912DB88081E4FC0308000C55903221140C900FC3290468A4095439A01434613408B402B43C35116E0FA
:4016400089B20F220A40083A92080632920013481018476803221140C900FF252A008A4097439A012B0013408B403B4343600B4B9A680B4B9A4206D10023F05E0199FFF744
:401680008DFF00E0034C200002B004BC9046F0BD8C3000100100560000E100E000ED00E00000000810B5034B1B78584300F0BCF810BDC046D400000801BEFEE770B50D0037
:4016C000044C18220100200000F09BFDA5610020FFF7F2FF00060008054B802212069A649B6C002B01DB002000E002487047C0460000274003004600054B802212019858DA
:401700005B68FF221A4202D08023DB021843704700002640FEE7C04610B50A4B0268DA6142681A6282685A62C2689A620269DA6242691A6382695A63C2699A63FFF7EAFF85
:4017400010BDC04600060008F0B5474680B4002801D0192300E064238B429B415B42304D2C682268A826A45BA41822680327BA433B401A4322602C682268A45BA2181668BC
:40178000284CA046264016602C682668AA229446A25A96193268BA43134333602A6813686546525BD3181A68444614401C60002805D010291BD921291BD8012024E0184BE5
:4017C0001B6855229A5C914215D956229A5C914213D957229A5C914211D958229A5C91420FD959229B5C99420DD804200CE000200AE0022008E0002006E0012004E0022031
:4018000002E0032000E00520054A1268526813680F218B430343136004BC9046F0BDC04648080008FFFCFFFF0230800803D001300238FCD1C046C0467047EFF3108072B62D
:40184000704780F31088704710B5B0235B059B899BB2002B04D0B0235B059B899BB201E080235B0080225200934215D1184C23681968683A9B58C9180B680F208343963A37
:4018800013430B6021680C689C23CB58E318196881430A431A6019E00D4C2368196898229B58C918B02040050A4BC2580A4B13400A681343C022920013430B602268116869
:4018C0009C23D358CB18054A82581A6010BDC0464808000848180000FFFCFFFF4418000030B5B0235B059B899BB2002B04D0B0235B059B899BB201E080235B008022520099
:40190000934215D1184C23681968683A9B58C9180B680F208343953A13430B6021680C689C23CB58E318196881430A431A6019E00D4D2B68196898229B58C918B0246405F6
:40194000C12040012258094B13400A681343C022920013430B602A6811689C23D358CB1822581A6030BDC04648080008FFFCFFFFB0235B059B899BB2002B04D0B0235B0541
:401980009B899BB201E080235B008022520093420DD1104B1B681A6898215B58D21811680D4B0B40C021C9010B43136011E0094B1B68196898229B58C918084BB02252059F
:4019C000D258074B13400A681343C022920013430B60704748080008FF8FFFFF18180000FFFCFFFF30B5B0235B059B899BB2002B04D0B0235B059B899BB201E080235B004C
:401A00008022520093420DD1134B1B681A6898215B58D2181168114B0B408021C9010B43136018E00C4D2B68196898229B58C918B02464050A4822580A4B13400A6813438E
:401A4000C022920013430B602A6811689C23D358CB1822581A6030BD48080008FF8FFFFF4C180000FFFCFFFF10B5B0235B059B899BB2002B04D0B0235B059B899BB201E04A
:401A800080235B0080225200934217D10020FFF7D9FBB0235B055B78002B04D0B0235B055B78DBB200E02123222B03D8002803D1013004E0012002E0002000E0012010BDA7
:401AC00030B585B004000D00022807D9042805D0032803D02A492B48FFF7F0FD6B1EDBB2012B07D9042D05D0082D03D026492548FFF7E4FDA400254BE458042D13D0012D74
:401B00001CD112E0A3682B420BD1E3681A6802925B6801930393290002A8236898471B4B5C61646902E0002000E00020002C24D0174B9842E6D1012DE4D11EE0022D01D100
:401B400004E01C006369002BFBD104E00F4B5C69002C00D0246900200DE0A3682B4209D1E3681A6802925B6801930393290002A8236898472469002CEFD105B030BDC0460B
:401B8000B2090000D0300010B309000010080008FF004200F8B50700012803D93D493E48FFF78CFDB0235B055B78002B04D0B0235B055B78DBB200E021239DB2B0235B05BB
:401BC0009B899BB2002B04D0B0235B059E89B6B201E0802676000020FFF734FB002814D180235B009E4212D1222D12D82B4B1B685C682B4821582B4B19403B0680225204B9
:401C000013400B432350002404E0274C02E0264C00E0254C80235B009E4201D1222D03D880235B009E4232D01C4B1A683123D35C002B04D1C421FF311C48FFF73FFD174B3D
:401C40001B681D6A80235B009E4203D1002F05D0174A06E0002F03D0164A02E0164A00E0164A01212800FEF7E9FF00280FD10B4B1A68B423D3585B191B68002BF7DBEB6829
:401C80001B0E1B06A0221206934200D100242000F8BDC0464C0A0000D03000104808000818F00000FFFFFFFE04004200442E0010010100300300000C010000300100000C53
:401CC000F8B50500012804D9822109012948FFF7F5FCFFF7C9FE002849D0FFF7AEFD0700002D11D10021244B244AD150E823DB00B0225205D65CF6B20120FFF74BFF041EE7
:401D000019D1FFF7A1FD16E0B02252051C4BD0581A4B194958501B49565CF6B21A481A581F218A4314390A431A500320FFF7BAFCFFF758FE0024002C15D11049124A8B587C
:401D40001F20834306401E438E50002D02D1FFF70FFE08E00720FFF7A5FCFFF7C1FD0020FFF718FF04003800FFF76BFD00E0074C2000F8BDD0300010307F00000000264088
:401D800010180000410700001CFF00000300420010B5041E03D115491548FFF78FFC154B1A68D168F222D2018A5822601B68F022D201D9688A5862600F4AD9688A58A2602B
:401DC0000E4AD9688A58E2600D4AD9688A5822610C4AD9688A5862610B4AD9688A58A261DA680A4BD358E36110BDC046A10A0000D03000104808000804780000087800008A
:401E00000C78000010780000147800001878000010B5041E03D114491448FFF74FFC144B1B68F022D201D96860688850114AD968A0688850104AD968E06888500F4AD9684C
:401E4000206988500E4AD968606988500D4AD968A06988500C4AD968E0698850DA682168F223DB01D15010BDC90A0000D03000104808000804780000087800000C78000031
:401E800010780000147800001878000070B50500012804D9A62189003548FFF70FFC354B5B68002B05D001210120FFF709FE040000E00024002C53D1FFF7BFFC06002D4B76
:401EC0005B68002B03D004210120FFF7F9FD2A4B1B6843229A5C002A08D09A68E023D358DB0603D523481830FFF752FFB0235B059B899BB2002B04D0B0235B059B899BB270
:401F000001E080235B0080225200934203D1280000F096F909E0194A116904230B431361012D01D030BF00E020BF134B1B6843229A5C002A08D09A68E023D358DB0603D5FB
:401F40000C481830FFF764FF3000FFF77AFC094B5B68002B09D008210120FFF7B1FD04E002210120FFF7ACFD054C200070BDC046D0300010100800084808000800ED00E007
:401F8000FF004200042805D10B4A116804230B4313600FE0094B1A681168A023D358CB180006C022920410401860034A136804218B4313607047C04610E000E048080008C0
:401FC000F0B54F464646C0B483B006000D0000921F00012B03D95B212B48FFF76FFB330B03D05C212848FFF769FB284B1A686E23D35A9B08013B264A13432A009A4301D1D0
:402000006B0003D45D212048FFF758FB32006A40F0231B011A40141E2FD1FFF70EFC01901A4B18686C23C15A83689C4661446E23C35A9A08013A2A40920090466A22825A41
:4020400015402D0A5D432A00424455182A68920A9202FF231E40009B002B01D00134FF3426437F0280239B001F403E4316432E600198FFF7E6FB002000E0064803B00CBCAE
:4020800090469946F0BDC0461031001048080008000F00400100CE000749C02252008B589B009B088020C00503438B508B588020000603438B50704700002640014B18603B
:4020C0007047C04648080008002243088B4274D303098B425FD3030A8B4244D3030B8B4228D3030C8B420DD3FF22090212BA030C8B4202D31212090265D0030B8B4219D3E8
:4021000000E0090AC30B8B4201D3CB03C01A5241830B8B4201D38B03C01A5241430B8B4201D34B03C01A5241030B8B4201D30B03C01A5241C30A8B4201D3CB02C01A52415C
:40214000830A8B4201D38B02C01A5241430A8B4201D34B02C01A5241030A8B4201D30B02C01A5241CDD2C3098B4201D3CB01C01A524183098B4201D38B01C01A52414309B0
:402180008B4201D34B01C01A524103098B4201D30B01C01A5241C3088B4201D3CB00C01A524183088B4201D38B00C01A524143088B4201D34B00C01A5241411A00D20146BF
:4021C000524110467047FFE701B5002000F006F802BDC0460029F7D076E770477047C046002310B59A4203D0CC5CC4540133F9E710BD03008218934202D019700133FAE775
:402200007047030030B5002A0DD00C7801335D1E013A2C700131002CF5D19A189A4202D01C700133FAE730BDF8B5C046F8BC08BC9E467047F8B5C046F8BC08BC9E46704750
:4022400001B40248844601BC604700BF350300080300000001000000010000000000000005036000040000000100000000000000010000000604600008000000C807000876
:40228000B501001073797374656D5F70736F63365F636D30706C75732E630000F4010000140004010A000905080000006301000000203440740080203440740000223440FD
:4022C0007400802234407400002434407400802434407400002634407400802634407400002834407400802834407400002A344074000000802A3440A02400107400000094
:4023000000213440142500109000000000233440A42500109000000000253440342600109000000000273440C426001090000000002934405427001090000000002B344020
:40234000E42700109000000000603440742800107C00000080603440F02800107C000000006134406C2900107C00000080613440E82900107C00000000623440642A001062
:402380007C00000080623440E02A00107C000000006334405C2B00107C00000080633440D82B00107C00000000643440542C00107C00000080643440D02C00107C00000021
:4023C000006534404C2D00107C00000080653440C82D00107C0000002C082D0900230218040106020C200E0F1002120116041A1028272A102C072E3030203203341C361C7E
:4024000038023AA856025C045F046301ECA128902C06A8B4AC5800011801000002013440182A3440017034400271344002723440027834403300000000000000000000000E
:402440006806660000000000000000000000000012120000030300003C000000000000000000000000EEE6BA0000000000000000000000000000020203021D1D370000001A
:402480000000000000000000EE0EEE0000000000000000000000000002020200020200000107208863008440A991502A25009A40000000100000000000200000DEBD2100B2
:4024C000000800361003000021000000080080001F400200803F608000820000000010014602000000DC6E2F3FFFFFFF00000000040000000000FF01000000000404040D35
:40250000000000010000C000300000108000200040401050000000000000000000000000FFFFFFFFFFFFFFFFFFFFFFFFFFFFFFFFFFFFFFFFFF000000FFFFFFFFFFFFFFFF37
:40254000FFFFFFFFFFFFFFFFFFFFFFFFFF000000000000000000000000000000000000000000000000000000FFFFFFFFFFFFFFFFFFFFFFFF111111111111111111111111A8
:40258000111111111111111111111111111111111111111111111111111111111111111111111111000000000000000000000000FFFFFFFFFFFFFFFFFFFFFFFFFFFFFFFFC7
:4025C000FFFFFFFFFF000000FFFFFFFFFFFFFFFFFFFFFFFFFFFFFFFFFFFFFFFFFF000000000000000000000000000000000000000000000000000000FFFFFFFFFFFFFFFFFD
:40260000FFFFFFFF1111111111111111111111111111111111111111111111111111111111111111111111111111111111111111111111110000000000000000000000006E
:40264000FFFFFFFFFFFFFFFFFFFFFFFFFFFFFFFFFFFFFFFFFF000000FFFFFFFFFFFFFFFFFFFFFFFFFFFFFFFFFFFFFFFFFF0000000000000000000000000000000000000084
:402680000000000000000000FFFFFFFFFFFFFFFFFFFFFFFF11111111111111111111111111111111111111111111111111111111111111111111111111111111111111113A
:4026C00011111111000000000000000000000000FFFFFFFFFFFFFFFFFFFFFFFFFFFFFFFFFFFFFFFFFF000000FFFFFFFFFFFFFFFFFFFFFFFFFFFFFFFFFFFFFFFFFF000000C0
:40270000000000000000000000000000000000001000000000000000FFFFFFFFFFFFFFFFFFFFFFFF11111111111111111111101111111111111111111111111111111111BA
:402740001111111111111111111111111111111111111111221000000040000000000000FFFFFFFFFFFFFFFFFFFFFFFFFFFFFFFFFFFFFFFFFF000000FFFFFFFFFFFFFFFFB0
:40278000FFFFFFFFFFFFFFFFFFFFFFFFFF00000000000000000000000000000000000000F035F14F40F00FF0FFFFFFFFFFFFFFFFFFFFFFFFD1111D11110110111111101D0C
:4027C000111111111111D1110111111D111110D101111111111011111111111111111111111111110000001400000000000000000342FF0F1F11FF23121F31030F6F5F030D
:402800000021141FFF000000202F14F1FF43FFFFFFFFFFFFFFFFFF30FFFFFFFFFF000000000000000002000000001F001F0000000550000000200000FFFFFFFFFFFFFFFFE0
:40284000FFFFFFFFF4137FE41191E3117875621F217117316117F531C321111F51111BF1711111111B1A111B11111111111111111111111100000000000000001F1F1F1FA7
:402880001F1F1F1F1F1F1F1F1F1F1F1F1F1F1F1F1F1F1F1F1F1F1F1F1F1F1F1F000000000000000000000000000000000000000000000000FFFFFFFFFFFFFFFFFFFFFFFFC0
:4028C00011111111111111111111111111111111111111111111111111111111111111111111111111111111111111111111111100000000000000001F1F1F1F1F1F1F1FB0
:402900001F1F1F1F1F1F1F1F1F1F1F1F1F1F1F1F1F1F1F1F1F1F1F1F000000000000000000000000000000000000000000000000FFFFFFFFFFFFFFFFFFFFFFFF1111111177
:40294000111111111111111111111111111111111111111111111111111111111111111111111111111111111111111100000000000000001F1F1F1F1F1F1F1F1F1F1F1FF7
:402980001F1F1F1F1F1F1F1F1F1F1F1F1F1F1F1F1F1F1F1F000000000000000000000000000000000000000000000000FFFFFFFFFFFFFFFFFFFFFFFF11111111111111112F
:4029C0001111111111111111111111111111111111111111111111111111111111111111111111111111111100000000000000001F1F1F1F1F1F1F1F1F1F1F1F1F1F1F1F3F
:402A00001F1F1F1F05101F1F1F1F1F1F1F1F1F1F00000000000000000000000000000000F000000000000000FFFFFFFFFFFFFFFFFFFFFFFFD111111111111111111111115F
:402A400011111111111111111111111111111111F1111111111111111111111111111111111111110000000000000000041F1F1F1F1F1F1F1F1F1F1F1F1F1F1F1F08141FE3
:402A80001F140F1F1F1F1F1F1F1F1F1F0000000000000000000000000000000000F00F0300100020FFFFFFFFFFFFFFFFFFFFFFFF111111111111121D11111111111111117A
:402AC000112111111111111111111111F1111F1111F1D111111111111111111F1111111100000000000000001F1F1F1F1F1F1F1F1F1F1F1F1F1F1F1F1F1F1F1F1F1F1F1F22
:402B00001F1F1F1F1F1F1F1F000000000000000000000000000000000FF000F000F00000FFFFFFFFFFFFFFFFFFFFFFFF111111111111111111111111111111111111111176
:402B40001111111111111111D1111D1111D11111111111111111111D1111111100000000000000001F1F1F1F1F1F1F1F1F1F1F1F1F1F1F1F1F1F1F1F1F1F1F1F1F1F1F1F7D
:402B80001F1F1F1F000000000000000000000000000000000000000000000000FFFFFFFFFFFFFFFFFFFFFFFF1111111111111111111111111111111111111111111111110D
:402BC00011111111111111111111111111111111111111111111111100000000000000001F1F1F1F1F1F1F1F1F1F1F1F1F1F1F1F1F1F1F1F1F1F1F1F1F1F1F1F1F1F1F1F5D
:402C0000000000000000000000000000000000000000000000000000FFFFFFFFFFFFFFFFFFFFFFFF11111111111111111111111111111111111111111111111111111111C4
:402C4000111111111111111111111111111111111111111100000000000000001F1F1F1F1F1F1F1F1F1F1F1F1F1F1F1F1F1F1F1F1F1F1F1F1F1F1F1F1F1F1F1F0000000020
:402C80000000000000000000000000000000000000000000FFFFFFFFFFFFFFFFFFFFFFFF111111111111111111111111111111111111111111111111111111111111111100
:402CC0001111111111111111111111111111111100000000000000001F1F1F1F1F1F1F1F1F1F1F1F1F1F1F1F1F1F1F1F1F1F1F1F1F1F1F1F1F1F1F1F0000000000000000E4
:402D000000000000000000000000000000000000FFFFFFFFFFFFFFFFFFFFFFFF1111111111111111111111111111111111111111111111111111111111111111111111113B
:402D40001111111111111111111111110000000000000000041F1F1F1F1F1F1F1F1F1F1F1F1F1F1F080C1F150D14101F1F1F1F1F1F1F1F1F00000000000000000000000022
:402D800000000000200F5FF0F000020FFFFFFFFFFFFFFFFFFFFFFFFF11111111111111D1111D1111111111111111111111111111110111111111D11D1121D1111111191198
:402DC000111111111111111100000000000000001F1F1F1F1F1F1F1F1F1F1F1F1F1F1F1F1F1F1F1F1F1F1F1F1F1F1F1F1F1F1F1F00000000001F000000000E000900000035
:402E00000000000000000000FFFFFFFFFFFFF7FFFFFFFFFF1111111111111111111111111111111111111111111111111111111111111111111111111111111111111111BA
:402E40001111111147656E6572617465645F536F757263655C50536F43365C70646C5C647269766572732F7065726970686572616C2F6970632F63795F6970635F647276BA
:402E80002E68000047656E6572617465645F536F757263655C50536F43365C70646C5C647269766572735C7065726970686572616C5C6770696F5C63795F6770696F2E63D5
:402EC0000000000047656E6572617465645F536F757263655C50536F43365C70646C5C647269766572735C7065726970686572616C5C6770696F5C63795F6770696F2E6826
:402F00000000000047656E6572617465645F536F757263655C50536F43365C70646C5C647269766572735C7065726970686572616C5C6970635C63795F6970635F647276B6
:402F40002E68000047656E6572617465645F536F757263655C50536F43365C70646C5C647269766572735C7065726970686572616C5C6970635C63795F6970635F647276E0
:402F80002E63000047656E6572617465645F536F757263655C50536F43365C70646C5C647269766572735C7065726970686572616C5C6970635C63795F6970635F706970A8
:402FC000652E630047656E6572617465645F536F757263655C50536F43365C70646C5C647269766572735C7065726970686572616C5C70726F745C63795F70726F742E6308
:403000000000000047656E6572617465645F536F757263655C50536F43365C70646C5C647269766572735C7065726970686572616C5C737973636C6B5C63795F737973637D
:403040006C6B2E630000000047656E6572617465645F536F757263655C50536F43365C70646C5C647269766572735C7065726970686572616C5C737973636C6B5C63795F97
:40308000737973636C6B2E680000000047656E6572617465645F536F757263655C50536F43365C70646C5C647269766572735C7065726970686572616C5C737973696E7416
:4030C0005C63795F737973696E742E630000000047656E6572617465645F536F757263655C50536F43365C70646C5C647269766572735C7065726970686572616C5C7379F1
:4031000073706D5C63795F737973706D2E63000047656E6572617465645F536F757263655C50536F43365C70646C5C647269766572735C7065726970686572616C5C7472D4
:4031400069676D75785C63795F747269676D75782E6300000000204000002440000000400000000000002340000030400000314000009F400000224000001040020202020C
:40318000020202020210101D800017007500FF030602063604102000000000007FC0000000040000000000000019324B647D00804000080B100000000000FF012002001F64
:4031C00000800004FF081018001000140018001C4044484C50000000081000000800000004000000041000000012000004210000002100000016000040114002C413001339
:403200008013A013200000001C0000000000214000002540000001400000344000002440000031400000324000001F410000234000001140010101010101010101101010FD
:40324000800019005500F0000501053B04101C01010000000FC000000004000001010101011D3A57789600082000101208000000001F00000010000F002000023F06080E57
:4032800000080009000A000B24282C3034000000100000009000000088000000080000008000000004F0000000F00000400200002005A000D00100018001A001200000005D
:4032C00010000000000000000000001000000008C0000000E8320010C0000008400500003C060008100200000048E80100127A0000093D0000093D0000093D0004000000C0
:40330000A00F00000000D007E9000010C10000100000000010B50004400B27D0144B1A68146AB023D15ACA00531AE3181B68002BF4DA3E220F4B1A600F4A104B1A60104B6A
:403340000621A322D20099500E4A98509B58084B1A68106AB023D15ACA00531AC31800225A60084B064AD358002BFADA10BDC04648080008040126401E1F00000801264029
:40338000000026401C05000010B54378FF2B20D100F022FA04000F4B1A683123D35C042B04D8C421FF310C4800F0F6F9094B1A68116AB023D35A9B00CB18DB685A681168DC
:4033C00001230B4313601368DB07FCD4200000F0EBF910BD48080008442E0010F0B585B001900291544B1A683123D35C002B04D1C421FF31514800F0CFF94F4B1B681E6A73
:40340000B4229A58971950229B5C002B77D000F0FBF9050003283CD1474B1A683123D35C062B04D8C421FF31444800F0B5F9424B1968B023CB5A5A00D21853000A6A94464A
:403440006344B4228A58D3181B68002B23DB002000F0CAF93A4B98421FD03A4B1A6900230021012000F0B0F9002803D0364C17E0013400E00024002000F0B6F9304B98426E
:4034800002D0324B9C42F3D9304B9C4207D92E4C06E0002404E02C4C02E02B4C00E00024002C46D100F098F90390294B294AD358002B13DA234A0121300000F0ADF900289F
:4034C0000ED10298FFF726FF019B002B0AD03B68002BFCDB00F090F9040004E01A4C02E0194C00E01C4C032D05D10121002000F063F90028F9D1039800F056F919E000F053
:403500006BF905000F4A0121300000F085F9002809D1019B002B08D03B68002BFCDB00F06BF9040002E0084C00E00B4C280000F03BF9200005B0F0BD48080008442E001056
:4035400001018800E807000805005200EF4902001C0500000000264001005000F0B54F464646C0B4824B1A685468B0235B055B78002B04D0B0235B055B78DBB200E0212360
:40358000212B67D1B023D15ACB005B1A116A8C46634419680029F5DADD6802212943D960B023D15ACB005B1A116A8C466344D968C9073ED5D9680904090C8C468427116820
:4035C000D559A84641440968090A0904FF26360431400D0088261168894691598846C14449460968090A0906294365462943D9601168D359C9180A685E4B98461A4090259D
:403600002D012A430A605A4B99461A6813689C46925962441368414619400B002B4313604B461A681568D15969180B689359EB181B684F4B1A68B021555AEB005B1B156AAE
:40364000AC46634400255D60156A515ACA00531AEB185B68484A116904230B431361012801D030BF00E020BF414B1A68B023D15ACB005B1A116A8C46634419680029F3DA54
:40368000B02149054978002904D0B02149054978C9B200E02121212932D1D968C90722D510688421525880180468324A1440DB681B0C1B02FF2109020B40234303602C4B83
:4036C00019688823C8580B689C46604403681A400D6AB023CC5AE1000B1BEB18DB681B0E1B021A430260224B1A68106AB023D15ACA00531AC318DA6802218A43DA6028E011
:4037000086235B00E358002B23D11C4807681C4BA321C9005E581B4A904615681A4A0260062058503E21424611600631174A9950164B134AD358002BFADA154A86235B003E
:40374000E2500E4B1F60A323DB000D4AD6500D4B1D60074B1A68106AB023D15ACA00531AC31800225A600CBC90469946F0BDC04648080008FF00FFFF00ED00E00801264051
:4037800000002640040126401E1F00001C050000AAAAAAAA0000000001B40248844601BC604700BFBD16001001B40248844601BC604700BF4318001001B40248844601BC86
:4037C000604700BFC90D001001B40248844601BC604700BF3910001001B40248844601BC604700BF3B18001001B40248844601BC604700BF550E001001B40248844601BC04
:40380000604700BF710A001001B40248844601BC604700BF3904001001B40248844601BC604700BF3D0C001000000000000000000000000000000000000000000000000019
:403840000000000000000000000000000000000000000000000000000000000000000000000000000000000000000000000000000000000000000000000000000000000048
:403880000000000000000000000000000000000000000000000000000000000000000000000000000000000000000000000000000000000000000000000000000000000008
:4038C00000000000000000000000000000000000000000000000000000000000000000000000000000000000000000000000000000000000000000000000000000000000C8
:403900000000000000000000000000000000000000000000000000000000000000000000000000000000000000000000000000000000000000000000000000000000000087
:403940000000000000000000000000000000000000000000000000000000000000000000000000000000000000000000000000000000000000000000000000000000000047
:403980000000000000000000000000000000000000000000000000000000000000000000000000000000000000000000000000000000000000000000000000000000000007
:4039C00000000000000000000000000000000000000000000000000000000000000000000000000000000000000000000000000000000000000000000000000000000000C7
:020000041008E2
:4000000000780408EB0208100D00000051030810510308105103081051030810000000000000000000000000000000004D0308104D030810000000004D0308104D030810DA
:400040004D0308104D0308104D0308104D0308104D0308104D0308104D0308104D0308104D0308104D0308104D0308104D0308104D0308104D0308104D0308104D03081000
:400080004D0308104D0308104D0308104D0308104D0308104D0308104D0308104D0308104D0308104D0308104D0308104D0308104D0308104D0308104D0308104D030810C0
:4000C0004D0308104D0308104D0308104D0308104D0308104D0308104D0308104D0308104D0308104D0308104D0308104D0308104D0308104D0308104D0308104D03081080
:400100004D0308104D0308104D0308104D0308104D0308104D0308104D0308104D0308104D0308104D0308104D0308104D0308104D0308104D0308104D0308104D0308103F
:400140004D0308104D0308104D0308104D0308104D0308104D0308104D0308104D0308104D0308104D0308104D0308104D0308104D0308104D0308104D0308104D030810FF
:400180004D0308104D0308104D0308104D0308104D0308104D0308104D0308104D0308104D0308104D0308104D0308104D0308104D0308104D0308104D0308104D030810BF
:4001C0004D0308104D0308104D0308104D0308104D0308104D0308104D0308104D0308104D0308104D0308104D0308104D0308104D0308104D0308104D0308104D0308107F
:400200004D0308104D0308104D0308104D0308104D0308104D0308104D0308104D0308104D0308104D0308104D0308104D0308104D0308104D0308104D0308104D0308103E
:400240004D0308104D0308104D0308104D0308104D0308104D0308104D0308104D0308104D0308104D0308104D0308104D0308104D0308104D0308104D0308104D030810FE
:400280004D0308104D0308104D03081010B5054C237833B9044B13B10448AFF300800123237010BD044A020800000000B43B0910084B10B51BB108490848AFF3008008480D
:4002C000036803B910BD074B002BFBD0BDE81040184700BF00000000084A0208B43B0910D0430208000000007047FFF7FDFF72B6104C114DAC4209DA21686268A368043B35
:40030000A2BFC858D050FAE70C34F3E70B490C4A00209142BCBF41F8040BFAE709480A490860BFF34F8F00F0EBFB00F0C5FB00F0B1F9FEE7B83B0910D03B0910044A0208B7
:40034000D0EA02080040020808ED00E0FEE7FEE700B504207146084202D0EFF3098001E0EFF30880043001F04BFCFEE710B5484B1B68012B35D0464B5B687BB1002221E06E
:4003800043498B68434850F82240434840F8234001338B60414B1B681A4400E00022FF2AEEDD01223A4B5A601BE039498B683C4850F82240384840F8234001338B60374B25
:4003C0001B681A44352AF0DD314B9B68B3F59B7F04DB2F4B00229A6001221A6000222C4B5A602B4BDB68012B35D0294B1B697BB1002221E026494B692A4850F822402A4868
:4004000040F8234001334B61244B1B681A4400E00022FF2AEEDD01221D4B1A611BE01C494B69224850F822401F4840F8234001334B611A4B1B681A44352AF0DD144B5B6956
:40044000B3F59B7F04DB124B00225A610122DA6000220F4B1A61164B1B6893F8333023B940F2B361134801F0BBFB114B1A68B2F85A3003F1804303F5201301211961B2F81D
:400480005A3003F1804303F520131B6910BD00BF204A02086CDB020888D602088C42020888CE02084CE4020874DF020888D20208C0E80208780B091010B586B0224BD3F8DF
:4004C000C03F13F0040F2ED01F4BD3F840431F4B1C60E4B206A901F8014D01221C480CF05CFB0A2C01D00D2C17D11A4A184C1A4B039302F11403029302F11803019302F1C6
:400500001C030093131D10321449204600F006FC6422002120460BF025FB0B4B0422C3F8C02FD3F8C03F0E4BB3F90030002B09DB5A0903F01F03012101FA03F36032094917
:4005400041F8223006B010BD0000664070DF02084CE802088C420208B0E8020860DB0208200F091000E100E010B500241FE0114B53F82420214610480CF04CF90F4B53F8F0
:40058000242021460E480CF045F90E4B53F8242021460D480CF03EF90C4B53F8242021460B480CF037F90B480CF0A6F90134FF2CDDDD10BD6CDB0208B40B091088CE0208FF
:4005C000CC0B09104CE40208E40B091088D20208FC0B0910A80E091010B504460E4B1B6803EB83039A000D4B1A445368984204D34FF47C710A4801F0F3FA2146094801F052
:400600002FFF022C02D10309074A1370032C02D10009064B187010BD34CC020890130910140C091000001D41BAE802086CDF0208F8B507460E4614461D46022002F014FF6A
:40064000204602F057FF002002F066FF01240FE004F18040013856F8201056F824302B4457F82420294457F8200003F053FC0134B4F59B7FECDBF8BD054A9169802393FB25
:40068000F1F31360012B02DC0122014B1A6070478C42020810B5ADF59B5D82B062B602F089F9854B186800230222194640680CF02BF9824C8249204601F04CFAB4F9003073
:4006C000002B08DB590903F01F03012202FA03F37C4A42F8213002F03FF902F011F97A4B7A4A7B497B4800F0B1FA7B4C7B49204601F030FAB4F90030002B08DB590903F0F2
:400700001F03012202FA03F36E4A42F82130744B1B6893F8333023B940F20371714801F05FFA6F4B1B68B3F85A3003F1804303F5201301229A616C4A136843F000431360FE
:40074000FFF712FF02F0C8FF04230522F0214FF4A07000F0E9F94FF49B64224600210DF569600BF0FFF9224600210DF6B8100BF0F9F9224600210DF59C600BF0F3F9224695
:40078000002102A80BF0EEF9584959480CF02AFA0028F9D0574B1B68002B45DD0220FFF71BFF0F230A22544909785448007800F01DFAFFF761FF002314E0591D0DF569624E
:4007C00042F823104E4A52F823104E4A02FB01F14D4A5269120391FBF2F20DF6B81141F823200133B3F59B7FE7DB444C2378474A0DF6B8110DF56960FFF71AFF2378444A8E
:400800000DF6B8110DF56960FFF712FF042301930523009308230A22F0214FF4A07000F0A9F90022334B1A60324BDB68002BABDD0320FFF7D1FE0F230A222F4909782F4814
:40084000007800F0D3F9002313E0591D0DF59C6242F823102F4A52F823102A4A02FB01F1294A5269120391FBF2F202A941F823200133B3F59B7FE8DB1F4C23786FF07F4239
:4008800002A90DF59C60FFF7D3FE2378204A02A90DF59C60FFF7CCFE042301930523009308230A22F0214FF4A07000F063F90022104BDA6068E700BF88430208200F0910FB
:4008C000B904081000E100E088D202084CE4020888CE02086CDB0208180F09106D030810C0E80208780B091000002840340C0910B0E80208204A02086CDF0208BAE8020825
:4009000088D60208B88201008C42020880FF80000080800074DF020808B5012001F0E0F808BD00BF704700BF5C4AD2F8803303F00F0303F1D00152F8212002F00702032A9F
:4009400004D0042A05D092B9554914E0554A116811E003F1C002514951F8222002F01F02112A06D0132A04D04FF4FA4103E04E4901E04FF400418BBB484BD3F8902502F002
:400980000100D3F88825C2F30172D3F8883513F0405F07D0414BD3F88835C3F30173012B02D102E0012300E0002303B108B9032A46D13A48D0F88025C2F31103D0F884256D
:4009C000C2F30C02D0F88005C0F300600130B1FBF2F202FB03F2B2FBF0F131E0012B2FD12E4BD3F8402602F00100D3F80026C2F30172D3F8003613F0405F07D0274BD3F8E9
:400A00000036C3F30173012B02D102E0012300E0002303B108B9032A12D12048D0F8002602F07F02D0F80036C3F30423D0F80006C0F3044002FB01F2B2FBF3F2B2FBF0F150
:400A4000164BD3F88033C3F3011321FA03F215494A601648D0F89030C3F3072301330069000E0130B2FBF0F08860B2FBF3F3CB600B6103F5742202F23F220D48A0FB02029D
:400A8000C2F387420A7503F2E7330A4AA2FB03239B098B61DB03CB61704700BF0000264000127A00AC42020800366E010000214083DE1B43D34D621008B50D4801F07CF94A
:400AC000FFF730FFFFF730FF00221146042000F0CFFD084800F062FE074B1B6893F8513013B1064800F0CAFE00F00CFD08BD00BF24110910384A0208C0E802083C0C09109E
:400B000008B501F0DAF8074AD2F8883043F47003C2F88830BFF34F8FBFF36F8F01F0D1F808BD00BF00ED00E0F8B506460F4614461D46002002F0DAFC0C4802F0DBFC3B466A
:400B400032460021084602F09FFF012002F08CFC074802F0CFFC7B1B321B2946204601F043FF022002F0D8FCF8BD00BF00808000D3D3D3002DE9F04F83B083468A46174619
:400B800099460C9D0D9EA0EB450393FBF2F30193A1EB460898FBF9F8012002F065FC124802F0A8FC022002F0B7FC012408E008FB04610B46C5EB0B02284603F0ABF90134E2
:400BC0004C45F4DB0124DDF8048008E008FB0450C6EB0A030246314603F09CF90134BC42F4DB03B0BDE8F08FD3D3D300F0B587B007460E4614461D460F4802F077FC0F4834
:400C000002F080FC0E4802F075FC3A460D4901A80BF028FF2A46214601A802F017FF3246094901A80BF01EFF05F11402214601A802F00CFF07B0F0BD008080001C15091012
:400C4000D3D3D300E80C0910FC0C09102DE9F04F87B083468A4691460193234B02AC0FCB84E80F00DFF8B0802049404601F0AAF81F4F2049384601F0A5F81F4E1F49304615
:400C800001F0A0F81E4D1F49284601F09BF8224600211D4801F0CEF91C4BC8F80430C8F808B07B60C7F808A004337360C6F808906B60019BAB60164B1B6893F8333023B9AB
:400CC00040F2FA51134800F08BFF114B1B68B3F85A3003F1804303F520131A6842F000421A6007B0BDE8F08F100D09101C14091054CC02084C1409106CCC02087C14091054
:400D000084CC0208AC1409100000284080011D41C0E80208780B09103CCC0208F0B583B004460D4616461F4662490BF05BFF48B10B9A614920460BF0B9FE0B995F480BF0FD
:400D400069FDB4E05E4920460BF04CFF48B10B9A594920460BF0AAFE0B9958480BF05AFDA5E0584920460BF03DFF48B12A46564920460BF09BFE294654480BF04BFD96E0BE
:400D8000534920460BF02EFF88B1524D3246294620460BF08BFE02AA42F8046D294620460BF084FE01994C480BF034FD7FE04B4920460BF017FF48B13A46494920460BF087
:400DC00075FE394647480BF025FD70E0464920460BF008FF90B1454D089A294620460BF065FE02AA089B42F8043D294620460BF05DFE01993E480BF00DFD58E03D49204628
:400E00000BF0F0FE58B33C4D099A294620460BF04DFE02AA099B42F8043D294620460BF045FE0199642912D0C82910D0B1F5FA7F0DD0B1F57A7F0AD0B1F5FA6F07D041F231
:400E40008833994203D042F21073994203D12B480BF0E0FC2BE02A480BF04EFD27E0294920460BF0BFFE10B3274D0A9A294620460BF01CFE02AA0A9B42F8043D2946204699
:400E80000BF014FE0199B1F5FA7F09D0B1F57A7F06D040F2DC53994202D0B1F5FA6F03D11A480BF0B7FC02E019480BF025FD03B0F0BD00BF340C0910200D0910240D0910B5
:400EC000340D09103C0D0910480D0910540D0910700D0910840D09109C0D0910BC0D0910D00D0910E80D0910040E0910180E0910300E0910500E09105C0E09106C0E091018
:400F0000940E0910AC0E0910B80E0910C80E0910F00E091008B54FF40041034801F0ACFE024802F075FB08BDB84B0208A82A0910024A136801331360704700BFBCE802081C
:400F4000014B1868704700BFBCE80208044B1B681844034B1B68C31A002BFADC704700BFBCE8020810B52021002000F0EBFE002409E0204600F016FF20B90849204600F089
:400F800003FF02E00134042CF3D9042C03D9A421034800F025FE00F0ADFE10BD310F0810080F091008B5FFF7DDFF08BD38B500F065F9754C0425A560142003F0FDF865609E
:400FC000642003F0F9F8A560642003F0F5F8282000F09EF9112000F09BF9642003F0ECF8362000F095F9A02000F0A2F93A2000F08FF9652000F09CF9B22000F089F90C20D6
:4010000000F096F90C2000F093F9002000F090F9332000F08DF9332000F08AF9B72000F077F9352000F084F9BB2000F071F92B2000F07EF9C02000F06BF92C2000F078F9A0
:40104000C22000F065F9012000F072F9FF2000F06FF9C32000F05CF9112000F069F9C42000F056F9202000F063F9C62000F050F90F2000F05DF9D02000F04AF9A42000F088
:4010800057F9A12000F054F9E02000F041F9D02000F04EF9002000F04BF9052000F048F90E2000F045F9152000F042F90D2000F03FF9372000F03CF9432000F039F947206E
:4010C00000F036F9092000F033F9152000F030F9122000F02DF9162000F02AF9192000F027F9E12000F014F9D02000F021F9002000F01EF9052000F01BF90D2000F018F9EE
:401100000C2000F015F9062000F012F92D2000F00FF9442000F00CF9402000F009F90E2000F006F91C2000F003F9182000F000F9162000F0FDF8192000F0FAF82B2000F09D
:40114000E7F8002000F0F4F8002000F0F1F8002000F0EEF8EF2000F0EBF82A2000F0D8F8002000F0E5F8002000F0E2F8012000F0DFF83F2000F0DCF80A2003F01DF829205C
:4011800000F0C6F838BD00BF8002324030B5A1B000241B941C941D941E941F946822214601A80AF0DFFC234622461449144802F0AFFB05464FF4A072F021204604F0E7FE85
:4011C0004FF4A072F021204604F0F8FE06231D931BA9284603F0D9FB0A4B01930A4B02930A4B04930A4B06930A4B08930A4B0B4A01A9284603F0E9FB21B030BD30320910F8
:4012000088320910111308103113081051130810611308106D130810DD50081075540810012904D108B5FFF7C1FE002008BD4FF0FF30704710B504462146034801F02EF929
:401240000028F9D010BD00BF00006640054BD3F80833C3F30803002BF8D0024BD3F84003704700BF000066400822034B1A70092203F580731A7070472C12344008B5044BB3
:401280001B7823B9FFF7F0FF0122014B1A7008BDB8CB020830B400240BE0084B1B7813F0010FFAD1064B18700D5D03F580731D7001349442F1D330BC704700BF281634403A
:4012C0002C143440084B1B7813F0010FFAD140F00200064B1870044B1B7813F0020FFAD0034B1878704700BF281634402C1434402C163440F8B507460E461546002404E08A
:401300003846FFF7DFFF30550134AC42F8D3F8BD054B1B7813F0010FFAD10022034B1A7003F5807318707047281634402C143440054B1B7813F0010FFAD10122034B1A702C
:4013400003F5807318707047281634402C14344008B58AB201460120FFF79CFF08BD00BF08B50120FFF7AEFF08BD00BF08B58AB201460120FFF7BEFF08BD00BF1F4B984286
:401380002DD00CD840282ED003D8E8B1102828D02FE0802829D0B0F5807F28D029E0184B984228D006D8B0F1204F0DD0154B984212D01EE0144B98420AD00133984209D0D9
:4013C000023B984215D101E0002070470F4870470F4870470F4870474FF4A0007047074870470D4870470D4870470D487047034870470C4870474FF4A40070470600520047
:40140000010000F0090000A0040000F0010052000200520003005200010050000200500005005200FF00520038B5124B1B6893F83130012B04D840F2C3110F4800F0D0FBFE
:401440000C4B1D682A6AB5F8B03013442C46D5F8B420D358002B0BDB084B1868FFF78EFF6B6801229A6063689B68002BFBD138BD034838BDC0E80208280F0910BCCB0208F6
:40148000020050001A4B186128B102230370FF23437000234380174B1B6893F850202AB300B583B0B3F93830ADF80030002301931149684600F04EFBBDF90030002B08DB56
:4014C000590903F01F03012202FA03F30B4A42F82130084B1B6893F8513023B102220849012000F077FA03B05DF804FB704700BFBCCB0208C0E802084144020800E100E0C3
:40150000F944020808B50248FFF7BCFF08BD00BFD0CB020838B50B4B1B68D3F8B4301B58002B0DDA0D4604460B0C1B0423B140F2D521054800F054FBA9B26160002038BDFD
:40154000024838BDC0E80208680F091001008A0038B50368002B01DA002300E0094B73B90D460446C2600B0C1B0423B140F2BB21054800F035FBA9B2A160002038BD014880
:4015800038BD00BF01008A00680F091038B504460D4619B99921084800F022FB074B1B68D3F8B4301B59002B03DAE3682B60002038BD034838BD00BFA80F0910C0E802087D
:4015C00001008A00254B1B6893F8313083423AD900293AD00B6813F01F0F38D170B50D4604461E4B1B6893F83130984204D340F2C3111B4800F0F4FA184B1B68186AB3F824
:40160000B03004FB0304174E34602A68D208002168680AF0A7FA00212046FFF77BFF346825B940F293310E4800F0DAFA2A4600212046FFF78DFF60B900210A4B1868FFF7D4
:4016400069FF40B970BD084870470748704706487047064870BD054870BD00BFC0E80208680F0910D4CB020803018A0001018A0010B504461346B2B9A9B9124B1B6893F871
:401680003130984204D340F2C3110F4800F0A8FA0C4B1B681A6AB3F8B03004FB03240B4B1C60002010BD43B149B1084A51609360111D2046FFF786FF10BD054810BD044835
:4016C00010BD00BFC0E80208680F0910D4CB020803018A002DE9F0411B4B1B68DC68236883422CD90D464609A0EB4610012303FA00F819B900F0E1FA074600E00027124B32
:4017000018680368002B01DA002300E00F4B83B9626852F8263018EA030F05D023EA080342F82630002400E0094C0021FFF7F2FE00E0084C25B9384600F0C3FA00E0064C55
:401740002046BDE8F08100BFD4CB020801008A00020188000301880004018A000B4B1B68DB681A6882420CD94109A0EB4110012202FA00F05B6853F82130184203D0044800
:401780007047044870470448704700BFD4CB02080101880004018A0000018800024B1B680BB9014B18607047E0CB02082DE9F8430446884691461D46089F2C4B1B681BB986
:4017C000B5212B4800F00CFA284B1B682C2000FB04F01C18EEB21E50C5F3072363602D0CA560244B1B6893F831309E4204D340F2C311214800F0F4F91E4B1B68196AB3F859
:40180000B02006FB02162661666893F832309E4204D340F2DF11184800F0E2F9154B1B681D6A803605EB46156561A668330C1B0423B14FF4FF71104800F0D2F9330C1B04E4
:4018400023B140F2FF110C4800F0CAF9B3B243EA0646AE60C4F81C90C4F820800023A36117B1B7F90030A381BDE8F883E0CB0208E80F0910C0E80208680F0910F0B58FB09D
:40188000044618B95221274800F0AAF9A369072B03D95621234800F0A3F9E36A1BB95821204800F09DF9236B1BB959211D4800F097F907AD04F114060FCE0FC537682F6025
:4018C00002AD26460FCE0FC533682B60164B1B68B3F93620079B1344ADF83030089B0D93A26AE16A0CAD00953B460A98FFF75EFF00210091069B0A460598FFF757FF216B9C
:40190000284600F027F9BDF93030002B08DB590903F01F03012202FA03F3044A42F821300FB0F0BDE80F0910C0E8020800E100E0F8B506460F461D4614461AB9FD211F484E
:4019400000F04EF91E4B1B681BB9FE211B4800F047F91B4B1B682C2101FB063001FB07314B68012202FA03F31B04466802FA06F60269EAB18F69EFB91268002A01DA00224E
:4019800000E0104AC2B92288134323600369DC6001238B614D620469330C1B0423B140F2BB21094800F01CF9B2B2A2600020F8BD0648F8BD0648F8BD0548F8BDE80F091032
:4019C000E0CB020801008A00680F091004028A0007028A00F8B505460F4616460E4B1B6823B94FF4AF710D4800F0FAF80A4B1B682C2404FB0534236A23B94FF4B17107487C
:401A000000F0EEF8E369B34204D9236A43F826700020F8BD0248F8BDE0CB0208E80F09100A028A0070B582B000230193044620B940F2D111284800F0D3F8236923B94FF40A
:401A4000E971254800F0CCF8636923B940F2D311214800F0C5F8236A23B94FF4EA711E4800F0BEF86369DD682A0C20D012041A601B682069194B1B68D3F8B430C358002B55
:401A800015DA01A9FFF782FD60B9019803681E0CDBB2E269934206D2226A52F8233013B1984700E0002631462069FFF733FDADB275B16369ADB21D601B68636A1BB198472C
:401AC0000023636202E0A36A03B198470023A36163691B6802B070BDE80F0910C0E8020810B50446074B1B6823B940F2B111064800F076F8034B1B682C2000FB0430FFF7C3
:401B000091FF10BDE0CB0208E80F091038B50D4B9A680D4B9A420FD10D46044621B940F237110A4800F05CF804F11003064A52F8230042F8235038BD1030054B53F820003F
:401B400038BD00BF00ED00E000400208281009100000081048B338B504460D464368072B03D93221134800F03BF8B4F900306268002B08DB5201D2B203F1604303F5614363
:401B800083F8002305E003F00F035201D2B20A49CA540A4B9A680A4B9A4208D12946B4F90000FFF7B3FF002038BD06487047002038BD00BF2810091014ED00E000ED00E043
:401BC000004002080100560008B5034B1B7800FB03F000F069F808BDC042020801BEFEE738B50D46044C1822014620460AF0E7FFA5610020FFF7F2FF70490208FEE700BF27
:401C000008B50268254BDA6142681A6282685A62C2689A620269DA6242691A6382695A63C2699A631E4A916AD963D16A1964516A5964516B9964926BDA64F1EE103A13F052
:401C4000900F27D0026A154B1A65426A5A65826A9A65C26ADA65026B1A66426B5A66826B9A66C26BDA66026C1A67426C5A67826C9A67C26CDA67026DC3F88020426DC3F81E
:401C80008420826DC3F88820C26DC3F88C20026EC3F89020FFF7B2FF08BD00BF7049020800ED00E0000000000230800803D001300238FCD100BF00BF7047EFF3108072B66E
:401CC000704780F310887047084B1B6813F4803F07D17047064B53F8243003B19847013401E010B50024042CF4D910BD10E000E020CC0208044B1A6842F002021A601A682B
:401D000042F001021A60704710E000E0042805D10A4A136843F0040313607047084B1B681A68D3F8A030000600F04070D050034A136823F004031360704700BF10E000E0E4
:401D4000C0E8020810B50C46002304E000210A4A42F823100133042BF8D9084A084BDA63FFF7D4FF24F07F44064B5C6000229A60FFF7C0FF10BD00BF20CC0208C91C08109E
:401D80000040020810E000E00346042805D8044A52F8200042F8231070470020704700BF20CC0208042803D8024B53F8200070470020704720CC0208014B1860704700BFD2
:401DC000C0E80208002800F0248138B50546002900F021810C460B78032B03D957219148FFF7FEFE6378032B03D958218D48FFF7F7FEA378032B03D959218A48FFF7F0FEEC
:401E00002379032B03D95A218648FFF7E9FEA379012B03D95B218348FFF7E2FEE379012B03D95C217F48FFF7DBFEE378012B03D95D217C48FFF7D4FE6379022B03D95E214D
:401E40007848FFF7CDFE237A032B03D95F217548FFF7C6FE237803F003016278930003F00C030B43A278120102F03002134322799201D2B21343A279920602F08062134368
:401E8000E279D20602F000621343E278120602F0807213436279120702F040521343227A43EA82732B60E3686B602369AB60237A032B00F2B280DFE803F002063388E36A1C
:401EC000EB60002038BD636903F50063B3F5805F03D378215348FFF783FEA36903F50063B3F5805F03D379214E48FFF779FEE369013BFF2B03D97A214A48FFF771FE636906
:401F0000C3F30B02A369484901EA03331A43E369013B42EA0363EB60E36A2B61002038BD636903F50063B3F5805F03D387213D48FFF756FEA36903F50063B3F5805F03D3B1
:401F400088213848FFF74CFEE369013BFF2B03D989213448FFF744FE236A03F50063B3F5805F03D38A212F48FFF73AFE636A03F50063B3F5805F03D38B212A48FFF730FEB0
:401F8000A36A013BFF2B03D98C212648FFF728FE6269C2F30B01A269234B03EA02320A43E169013942EA0162EA60226AC2F30B02616A03EA01331343A26A013A43EA026362
:401FC0002B61E36A6B61002038BD184B1B6893F82A30012B23D9636903F50063B3F5805F03D3A1210F48FFF7FBFDE369013BFF2B03D9A2210B48FFF7F3FD6369C3F30B038F
:40200000E269013A43EA0263EB60E36A2B61002038BD07487047064838BD054838BD044838BD00BFDC11091000F0FF00C0E8020801004E00002860D0F8B50346002A5ED028
:40204000106800285DD03148006890F83300884259D91E4614460D469368032B03D9EF212B48FFF7BDFD2768284B1B6893F833309D4204D340F2E1512648FFF7B1FD234BA5
:402080001A68B2F85A309919B2F85C3005FB0313DF60B2F85A10B2F85C30314405FB03118B681B0C1B048B60B2F85A301E44B2F85C1005FB01F123792BB192F85F700123A3
:4020C00003FA07F700E00027A06892F85E50A8400322AA4000EA02033B43227B12B14FF0004200E000221343627B0AB1042200E00022134373500020F8BD074870470648FF
:40210000F8BD0548F8BD0448F8BD00BFC0E80208DC1109101812091001004E002DE9F8430E46074618B93A217548FFF759FD1EB93B217348FFF754FD002F00F0DA80002EDB
:4021400000F0DA8032686F4B13401BB14A216C48FFF746FD72686C4B13401BB14B216848FFF73EFDB36813F0FC2F03D04C216448FFF736FDF36813F0FC2F03D04D2160487D
:40218000FFF72EFD337D032B03D94E215C48FFF727FDB369B3F5803F03D34F215848FFF71FFDF36D072B03D950215548FFF718FD336EB3F5803F03D351215148FFF710FD29
:4021C000736EB3F5803F03D352214D48FFF708FD736843F000437B60B3683B61F3687B613369BB61337D9B07FB61B3693B62336803F46068736803F00409002435E02546AC
:40220000A31D06EB83035A68404B13401BB163213B48FFF7E5FCAB1D06EB8303596805F1200247F822105B6813F0012F0BD1B8F5606F08D1B9F1000F05D04FF47842344B63
:4022400023F8152003E00022314B23F81520726F02F11C7303F58033520093FBF2F31BB22C4A42F825300134E4B20F2CC7D9F36DC7F81832F36DC7F81032336EC7F828326E
:40228000336EC7F82032736EC7F83832736EC7F8303296F87030DBB1B36EB3F1804F03D382211748FFF79CFCF36E23F44F0323F0FF031BB183211248FFF792FC6FF040439D
:4022C000C7F80433B36EC7F80033F36EC7F84433D7F8003F3F2B02D0D7F8003F13B90B23C7F8003F336843F400133B600020BDE8F8830948BDE8F8830748BDE8F88300BF8F
:40230000541209100811DF0001FE302088CA887EC4E80208E4E802080100060038B50D46044618B9B5211748FFF75AFC2CB30023236063604FF0031222616261A361E361E6
:40234000236206E003F12002002144F822100133DBB20F2BF6D90023C4F81832C4F82832C4F838325DB16FF04043C4F804330020C4F84003C4F8440338BD034838BD0020C4
:4023800038BD00BF541209100100060008B50368002B0ADBD0F8A032002BFBDB036843F0004303600220FFF70FFC08BD38B505460C46012904D940F271110648FFF710FC4F
:4023C000012C04D16B6843F480336B6038BD01236B6238BD5412091038B505460C460F2904D94FF415710848FFF7FAFB0F2C07D8203455F8243013F0012F03D0002038BD2C
:40240000002038BD012038BD5412091038B505460C460F2904D940F222211048FFF7E0FB0F2C14D821462846FFF7D6FF80F0010010F0FF0F05D06B6813F0080F09D10020B3
:4024400038BD6B6813F0040F05D1002038BD002038BD012038BD012038BD00BF5412091070B506460D460F2904D94FF428710A48FFF7B6FB0F2D05D805F1600356F8234043
:40248000A4B200E0002429463046FFF7BFFF08B120B270BD204670BD54120910036813F4006F01D0802200E04022D0F80832C3F30803934203D0C0F840120120704700205C
:4024C000704700BF002800F0A48170B50546002900F0A18116460C460B78022B03D93F21A248FFF77DFB637B023BDBB2062B03D940219E48FFF774FBA37B3BB1022B05D01F
:40250000032B03D041219948FFF76AFB94F82130012B03D942219548FFF762FB94F82830012B03D943219148FFF75AFB2378012B06D86368083B082B94BF0023012307E0A9
:40254000A37F2BB16368013B062B94BF002301231BB145218548FFF743FBA368053B042B03D946218148FFF73BFB6369FF2B03D947217E48FFF734FBA369FF2B03D9482106
:402580007A48FFF72DFBA37C6BB1237833B9A368092B05D1A37B2BB1012304E0012302E0012300E000231BB14A217048FFF718FB636B23F4366323F00D031BB14C216B48B0
:4025C000FFF70EFBE36B23F4EE6323F003031BB14D216648FFF704FB2378022B01D1A37F13B16268013A00E00022237F13B14FF4803100E00021A368082B02D84FF4006390
:4026000000E000230B4302F00F02134343F000732B60226B2B6813F4006F01D0802300E040239A4203D362215048FFF7D9FAA26B2B6813F4006F01D0802300E040239A4233
:4026400003D363214948FFF7CBFA626A2B6813F4006F01D0802300E040239A4203D364214248FFF7BDFA23781B0603F040732B64637F0BB1402200E00022A37C13B14FF4A1
:40268000806300E000231343227C12B14FF4807200E000221343627C12B14FF4007200E000221A43E36A013B1B0403F470231343627B013A02F007021343A27B120102F028
:4026C00030021343AB64237B13B14FF4807200E00022E37B23B92378022B03D1012302E0012300E0002313B14FF4007300E000231A43A368013B03F00F031343C5F800333B
:40270000227DA3691B0403F47F031343C5F81033E26AD5F8003303F00F0303339A4201D3102A03D97A211148FFF75AFAE37F23B12378012B03D0002302E0002300E0012379
:4027400013B14FF4807200E00022637B013B03F007031A43A37B1B0103F0300313436B64237B2BB14FF4807203E000BF141309100022A368013B03F00F0313432278012A4B
:4027800002D14FF4803200E000221343C5F8003294F83030C5F8043394F8203013B14FF0007200E0002294F82130012B02D14FF0807300E00023134394F82820012A02D19E
:4027C0004FF4803200E00022134394F8242013432B6594F83830C5F80432636B23F4926323F002031B051B0DC5F8C83FE36B23F08C035B055B0DC5F8883F76B1002070609E
:402800003060B060F0603062F0623063044B736370BD04487047034870BD002070BD00BFEFCDAB000160AA0070B539B900240AE015F8010BFEF7FEFC013402E016460D46F3
:402840000024B442F4DB204670BD00BF70B561B900240FE0FEF7FAFCC0B2287001340A2808D00D2806D0013502E016460D460024B442EFDB204670BD38B504461E4B1A682C
:40288000916892F8703003F00203DBB243F08043C1F800340369FF2B0AD89168B2F874200A44916821F47F411B029BB20B439360114B1A68906892F87310032303FA01F51B
:4028C00092F8703092F8721003FA01F1294303F002030B4343F00043C0F800349368D3F80034064D00212846FFF718FDA1682846FFF714FC38BD00BFC0E8020800001D4177
:4029000008B5074B5B6813F4802F04D001210448FFF74CFD08BD00210148FFF747FD08BD00001D4108B5084B1B7963B907490848FFF710F9044B5B792BB90122024B5A7161
:402940000448FFF799FF08BD34CC020885290810100F09109013091008B5084B1B7913F0010F06D1FFF7DEFF044A137943F0010313710348FFF70AFD08BD00BF34CC020828
:4029800000001D4110B5094BD3F81042072C04D940F231610648FFF723F9044BC3F81042D3F81022D3F8103210BD00BF00001D415413091008B5084B1B783BB9074A084946
:4029C0000848FFF77FFD0122034B1A70054A136843F00043136008BD9DCC020824E90208DC14091000006640F0B51B4C85B02668F76C3D18306DBC1841180191C718337EF6
:402A000002A9013B9BB2EA1A0A801A198A80019A0800D21ADB194A80CB8004F003FA002818D022000199280002F0A2FD22003900280002F09DFD019B7A1E5E1C3100280073
:402A400002F0BCFD7A1E3100200002F0B7FD04F039F9E4E705B0F0BDCC420208064B5A68596B01325A60C2008A18596A51600021117058627047C0465CE902080F2330B596
:402A800042680E4CD90009190D6C2100AA4202D2013BF7D211E00F2B0FD82468A21A0A608268C068002A00D05060002801D0026003E00833DB00CB185A6030BD5CE902080B
:402AC000F8B5284C0600E368A26B013B0818D3180D00984206D80368002B03D14368F618FFF7CCFFA36B9D420BD92B1F1F68EF1B3B68002B05D17B683800F6183D00FFF7BB
:402B0000BDFF0F23DA00A218126C964202D2013BF8D225E00F2B23D80833DA00A21850680022A91904392A606E60A8602D610E6029000831904200D04160EA602200DB00B9
:402B4000E318A860596023682932F31823601278002A05D1E268D31AA268934200D9A3603000F8BD5CE90208F0B5234B87B09C6BDB680490013BE318039323686568002BFD
:402B800030D1039B6719BB422CD93B680293002B28D0194EDB00726B9B5C012B22D17B6820000193F36A0593FFF768FF3B68726BDB00D3185C60019A3900200008F0B7FFD7
:402BC000029B059A934202D1736B5B1B7363019B2800E118FFF774FF049B002B01D0984206D2019D039B6419A342C6D8012000E0002007B0F0BDC0465CE90208002806D040
:402C0000034BDA6B0260002A00D05060D86370475CE90208034BC0005B6B1818406808307047C0465CE90208064A10B5D3690133D361526BC300D3181A7801321A70FFF75B
:402C4000E9FF10BD5CE90208036810B5083B094C1B68626BDB00D3181A78012A04D9E169002901D00139E161013A1A7000230360180010BD5CE902080322024B91431860DB
:402C800059607047A0CC020810B5041E0BD0064B5A6BC300D3185B6819005868FFF710FF2000FFF7DBFE10BD5CE90208F7B5224DEB6A002B07D1214B99685868083108F02B
:402CC0009FFA841C03E02B691C1DDB08E418E00000F000F90126071E2CD06A6BC300D3185E68EB6A083601932B69696BDA00144B30001B68984729696E630B00CA000432EA
:402D0000EF62B218601E834203D2013313600832F9E7DB00F31800265E60074B5A685962511A091959601C61019BB34202D01800FFF7AAFF3000FEBD5CE90208A0CC020879
:402D40000043020870B5184C230028331A78002A29D101321A70154B0F32DA609A68002A02D15A6892089A605A2210252262002228009040D100611801320864102AF7D122
:402D80005868196803000125143BCB180E3A22616363A163E0605D6065626560FFF790FEFFF784FF256370BD5CE90208A0CC0208F0B5040085B0FFF7C5FF0323294E033476
:402DC0009C43376C201DB84200D30700F26B1400002C06D0231F196823688F4232D01C00F6E7F268B36B944663440193043B02931B680393039A019B9D1A2B68002B06D0B5
:402E00002000FFF7B1FE029B1D68019B5D1B2B68002B23D16B689F4220DC28001C1DFFF72DFEF368E41BDB1BF36073692C19DB1973616B68D81B02D02900FFF741FE231FEF
:402E40001F600BE0002B01D0616859606168002900D00B60A24201D12368F363200005B0F0BDC0465CE9020810B5FFF76BFF00230C4A1900BC315058002802D0836800207E
:402E80000CE0083B19008031F3D109E05A68824200D910009B68002B02D09B68002BF5D10C3810BD5CE9020810B5FFF7DDFF8023074CDB03984205D9642108F0B3F9236AD0
:402EC000584304E0236A6421584308F099F910BD5CE90208F0B585B00400FFF733FF3C4D2E6CB44203D3032303349C4326002B680C360196B34241D32B6B6A689A420FD908
:402F00006B686F6A013B6B60FB0003936B6BFA009B185A686A6201221A70002F0AD12DE0013B2B63FFF7C2FE2B6B01332B630028E6D023E00F23DA00AA18126C964201D2C8
:402F4000013BF8D21A00DB004433EB180F2A0DD81968002907D08C68002C04D061688E420ED9A168F5E701320833EFE73000FFF7FBFD0028DED03800FFF770FD002723E0E7
:402F8000636802939E1B2B6C0C339E4201D2029B01932000FFF772FD6B6B039A9B185C60019B019A63600023A360019B2760E1180B1F24611A601300029A934204DA1300FD
:402FC000019A981AFFF77CFD380005B0F0BDC0465CE90208002310B5984202D0FFF77AFF0300180010BD000037B50500FFF7F2FF041E0AD0FFF718FE054B01901B682A00CD
:403000000021984701A8FFF71FFE20003EBDC04604430208514BF0B51B688FB0DA69D469A589A84208DBE189814205D32168451B09910121494215E0A168002900D184E053
:403040000D88A84200DA80E04E8886427DD3451B4968A8B266688000081809960021455E0221415E0891691C6FD022215E5E2420195E0691127E0A92A27C0A9951430C91DF
:40308000227C0B922A229B5E1800079302F03AFA324F0D903A680699D369926B300005920C9A5543099A551904950125A27C02950392DA7E01929B7E0B9A00930A9B02F02E
:4030C000B3FB089B01331BD00220079B184302F019FA3B680899DA699B6B300005930C9B4B430999CB180493A37C02950393D37E06990193937E0B9A00930A9B02F094FB57
:40310000164D2B68DB695A7E1B7E9A4217D9079B022B14D00420584002F0F4F92B68069AD8690B99437E057E9B18827E51438A19C17E069869430918300002F065FA6B46A8
:4031400034229B18187802F0DDF9044B617C1A68538CCB1853840FB0F0BDC046CC420208044B1B68DB69DB69002901D01A7C0A60587C7047CC42020802230B80704710B5FA
:40318000C3699A89914203DBDA8901208A4210D29B68181E0DD01A880020914209D35C888C4206D3891A5B688900C85AC04380B2C00B10BD002807D003888B4202D84388F1
:4031C0008B4201D28068F5E770470000F0B5334F8BB03B6804002A215A5EDB690100D8690792FFF7E7FF002855D00388E41A4368E4001E190798B47802F084F9396809909D
:40320000CD6932782B7E08932423C85E84462223C85E896B089B059171680394049101210291E97E0191A97E0091614602F0FCFA3B68DB695C7E1A7E089294421FD9079A3F
:40324000022A1CD0DD7E00F082F8079000F079F800F050F93A682423D15E2223D05E2300D2696B43D47E32785B186243089C12186543691802F0C8F9079800F03BF9099887
:4032800002F040F9054B71781B68DA69927E4A43598C52185A840BB0F0BDC046CC4202080C4B70B51B680400DE690D000100F069FFF780FF00280CD002884368A41AE40093
:4032C0001C196078B37E5843002D02D0227853432B6070BDCC42020801230B80704710B5C069FFF767FF431E9841C0B210BDFF2230B5040014400A40A21A92B213B2002B35
:4033000001DA524213B25B431D00FF23020A1A4014000A0A1340E21A92B213B2002B01DA524213B2000C5B43090C411A89B208B25B19002801DA494208B280B24043C018DF
:4033400030BD10B502F0D8FC02F0DEFB10BD10B502F0DAFC02F0D8FB10BD0000044B00229B5E0360034B00229B5E0B607047C04644EA020834EA020870B500282CD00029EE
:4033800026D0002A25D013880D881C1C2EB21BB2B34200DD2C1C048053884D881C1C2EB21BB2B34200DD2C1C448093888D881C1C2EB21BB2B34200DA2C1C8480D388C988F6
:4033C0001A1C0CB21BB2A34200DA0A1CC28003E01100082208F0A0FB70BD00280DD0038889B2CB180380838892B2C91843888180D3184380C388D218C28070470E4B10B5E0
:403400001B681C1E03D098470400601E844103F073FE002800D00124084B1B68002B03D09847002800D00124054B1B68002B00D09847200010BDC04640EA020868EA020855
:4034400060EA020810B50024FFF7D8FF002801D00124F9E7200010BD024B1B685884998400207047CC420208024B1B681A7E187610007047CC42020830B503000222845EDC
:4034800006200A5E0020944213DC02228C5E06255A5F94420DDC00229C5E04254A5F944207DC00228A5E0421595ED00FCB179142584130BD10B5034B7022196808F02CFBFC
:4034C00010BDC046CC42020810B5034B01007022186808F021FB10BDCC42020810B502F01DFD02F083FD03F047FE10BD10B502F04FFB10BD10B502F053FB10BD10B502F023
:4035000001F810BD034B021E1B68D86900D0DA617047C046CC420208024B1B689A7E987610007047CC420208084B10B51880084B0A001980074B08491B685B7C9B005B58ED
:40354000D9680C6A01001800A04710BD44EA020834EA0208CC4202086CEA0208034B1B682C215A5E988510007047C046CC420208034B1B682A215A5E588510007047C04699
:40358000CC4202080E4B10B5186802F001FB0D4B186802F005FB0120FFF766FF0020FFF7DDFF0020FFF7E4FF0020FFF7A7FF064B1868FFF7A7FF0020FFF7AEFF10BDC04677
:4035C00024CD0208D4420208D842020870B50024094D0A4E10C53368210028007022984733680422210006489847064B1D60064B1C70064B1C6070BDB0CC020804430208E0
:403600006CEA0208CC42020854EA020830EA0208014BD8607047C046CC420208F0B50700160085B00C000420019301F06BFF114B00901A68D36CDD199E19176D019B3C1968
:40364000FF1802AB18001D809E805C80DF8003F0E9FB002804D1009801F054FF05B0F0BD3B0032002100280001F0CEFF03F02AFBEFE7C046CC420208002110B50800FFF702
:40368000EBFE034A034813000100FFF7C7FF10BDFF3F000001C0FFFF024BDA6FD86742607047C046B0CC0208084B10B51A68002A0AD101321A60FDF72DFCFDF767FD044828
:4036C000044B0360FFF7E8FF10BDC046B0CC020830CD0208CD35081070B5FFF7E5FF2E22314B1A70FDF75EFC304C314D2100314B0C3123672B681A1DDA630432A2619B6382
:403700001B645B7C2C4A9B009858C3681B6B98472A4B6366EB6823622B680833A36101232377E37703F0B6FE2300032268331A70234BE064606F6363A36302F029FAA8681C
:4037400002F02EFA1F4A204B1A6002F083F9050002F082FB060002F085FB002E01D0002808D102F063FB060002F065FB0100300002F06CFB00210800FFF7D6FE03F056FD1C
:40378000A36F002B0AD0A36F002B07D01B68002B00D09847A36F5B68A367F4E701220B4B28001A7070BDC04625EA0208B0CC0208CC420208C83109106CEA0208C031091036
:4037C000785634FF2032091064EA02084CEA02080300002083420ADC054A9B009858002805D0C3681B68002B01D00068F7E770476CEA020810B5FFF701FA10BDF8B50600E3
